{
  "_format": "hh-sol-artifact-1",
  "contractName": "AccountFactory",
  "sourceName": "contracts/Account.sol",
  "abi": [
    {
      "inputs": [
        {
          "internalType": "address",
          "name": "owner",
          "type": "address"
        }
      ],
      "name": "createAccount",
      "outputs": [
        {
          "internalType": "address",
          "name": "",
          "type": "address"
        }
      ],
      "stateMutability": "nonpayable",
      "type": "function"
    }
  ],
  "bytecode": "0x6080604052348015600f57600080fd5b506109828061001f6000396000f3fe608060405234801561001057600080fd5b506004361061002b5760003560e01c80639859387b14610030575b600080fd5b61004361003e366004610268565b61005f565b6040516001600160a01b03909116815260200160405180910390f35b6040516000906001600160a01b03831690829061007e6020820161025b565b601f1982820381018352601f9091011660408181526001600160a01b03871660208301520160408051601f19818403018152908290526100c192916020016102c1565b604051602081830303815290604052905060006100e5838380519060200120610114565b90506001600160a01b0381163b156100ff57949350505050565b61010b60008484610128565b95945050505050565b6000610121838330610231565b9392505050565b60008347101561017f5760405162461bcd60e51b815260206004820152601d60248201527f437265617465323a20696e73756666696369656e742062616c616e636500000060448201526064015b60405180910390fd5b81516000036101d05760405162461bcd60e51b815260206004820181905260248201527f437265617465323a2062797465636f6465206c656e677468206973207a65726f6044820152606401610176565b8282516020840186f590506001600160a01b0381166101215760405162461bcd60e51b815260206004820152601960248201527f437265617465323a204661696c6564206f6e206465706c6f79000000000000006044820152606401610176565b6000604051836040820152846020820152828152600b8101905060ff815360559020949350505050565b61066e806102df83390190565b60006020828403121561027a57600080fd5b81356001600160a01b038116811461012157600080fd5b6000815160005b818110156102b25760208185018101518683015201610298565b50600093019283525090919050565b60006102d66102d08386610291565b84610291565b94935050505056fe6080604052348015600f57600080fd5b5060405161066e38038061066e833981016040819052602c916050565b600180546001600160a01b0319166001600160a01b0392909216919091179055607e565b600060208284031215606157600080fd5b81516001600160a01b0381168114607757600080fd5b9392505050565b6105e18061008d6000396000f3fe608060405234801561001057600080fd5b506004361061004c5760003560e01c806306661abd146100515780633a871cdd1461006d57806361461954146100805780638da5cb5b1461008a575b600080fd5b61005a60005481565b6040519081526020015b60405180910390f35b61005a61007b3660046104d3565b6100b5565b610088610177565b005b60015461009d906001600160a01b031681565b6040516001600160a01b039091168152602001610064565b7f19457468657265756d205369676e6564204d6573736167653a0a3332000000006000908152601c839052603c81208190610132906100f8610140880188610527565b8080601f01602080910402602001604051908101604052809392919081815260200183838082843760009201919091525061018d92505050565b60015490915061014c9082906001600160a01b03166101b1565b6001546001600160a01b0382811691161461016857600161016b565b60005b60ff1695945050505050565b6000805490806101868361056e565b9190505550565b600080600061019c8585610233565b915091506101a981610278565b509392505050565b6040516001600160a01b0380841660248301528216604482015261022f9060640160408051601f198184030181529190526020810180517bffffffffffffffffffffffffffffffffffffffffffffffffffffffff167fdaf0d4aa000000000000000000000000000000000000000000000000000000001790526103e5565b5050565b60008082516041036102695760208301516040840151606085015160001a61025d878285856103ee565b94509450505050610271565b506000905060025b9250929050565b600081600481111561028c5761028c610595565b036102945750565b60018160048111156102a8576102a8610595565b036102fa5760405162461bcd60e51b815260206004820152601860248201527f45434453413a20696e76616c6964207369676e6174757265000000000000000060448201526064015b60405180910390fd5b600281600481111561030e5761030e610595565b0361035b5760405162461bcd60e51b815260206004820152601f60248201527f45434453413a20696e76616c6964207369676e6174757265206c656e6774680060448201526064016102f1565b600381600481111561036f5761036f610595565b036103e25760405162461bcd60e51b815260206004820152602260248201527f45434453413a20696e76616c6964207369676e6174757265202773272076616c60448201527f756500000000000000000000000000000000000000000000000000000000000060648201526084016102f1565b50565b6103e2816104b2565b6000807f7fffffffffffffffffffffffffffffff5d576e7357a4501ddfe92f46681b20a083111561042557506000905060036104a9565b6040805160008082526020820180845289905260ff881692820192909252606081018690526080810185905260019060a0016020604051602081039080840390855afa158015610479573d6000803e3d6000fd5b5050604051601f1901519150506001600160a01b0381166104a2576000600192509250506104a9565b9150600090505b94509492505050565b60006a636f6e736f6c652e6c6f679050600080835160208501845afa505050565b6000806000606084860312156104e857600080fd5b833567ffffffffffffffff8111156104ff57600080fd5b8401610160818703121561051257600080fd5b95602085013595506040909401359392505050565b6000808335601e1984360301811261053e57600080fd5b83018035915067ffffffffffffffff82111561055957600080fd5b60200191503681900382131561027157600080fd5b60006001820161058e57634e487b7160e01b600052601160045260246000fd5b5060010190565b634e487b7160e01b600052602160045260246000fdfea2646970667358221220426f1396c179752438cd3c4c9743019b5bdb0682e43402c21043be2193a37df164736f6c634300081c0033a264697066735822122006f20dbd2556a52ae5f3b30bc25b618c4ed1ddc089cbc70f48ea9df74cc67bd764736f6c634300081c0033",
  "linkReferences": {},
  "deployedLinkReferences": {}
}