{
  "_format": "hh-sol-artifact-1",
  "contractName": "Paymaster",
  "sourceName": "contracts/Paymaster.sol",
  "abi": [
    {
      "inputs": [
        {
          "internalType": "enum IPaymaster.PostOpMode",
          "name": "mode",
          "type": "uint8"
        },
        {
          "internalType": "bytes",
          "name": "context",
          "type": "bytes"
        },
        {
          "internalType": "uint256",
          "name": "actualGasCost",
          "type": "uint256"
        }
      ],
      "name": "postOp",
      "outputs": [],
      "stateMutability": "nonpayable",
      "type": "function"
    },
    {
      "inputs": [
        {
          "components": [
            {
              "internalType": "address",
              "name": "sender",
              "type": "address"
            },
            {
              "internalType": "uint256",
              "name": "nonce",
              "type": "uint256"
            },
            {
              "internalType": "bytes",
              "name": "initCode",
              "type": "bytes"
            },
            {
              "internalType": "bytes",
              "name": "callData",
              "type": "bytes"
            },
            {
              "internalType": "uint256",
              "name": "callGasLimit",
              "type": "uint256"
            },
            {
              "internalType": "uint256",
              "name": "verificationGasLimit",
              "type": "uint256"
            },
            {
              "internalType": "uint256",
              "name": "preVerificationGas",
              "type": "uint256"
            },
            {
              "internalType": "uint256",
              "name": "maxFeePerGas",
              "type": "uint256"
            },
            {
              "internalType": "uint256",
              "name": "maxPriorityFeePerGas",
              "type": "uint256"
            },
            {
              "internalType": "bytes",
              "name": "paymasterAndData",
              "type": "bytes"
            },
            {
              "internalType": "bytes",
              "name": "signature",
              "type": "bytes"
            }
          ],
          "internalType": "struct UserOperation",
          "name": "userOp",
          "type": "tuple"
        },
        {
          "internalType": "bytes32",
          "name": "",
          "type": "bytes32"
        },
        {
          "internalType": "uint256",
          "name": "",
          "type": "uint256"
        }
      ],
      "name": "validatePaymasterUserOp",
      "outputs": [
        {
          "internalType": "bytes",
          "name": "context",
          "type": "bytes"
        },
        {
          "internalType": "uint256",
          "name": "validationData",
          "type": "uint256"
        }
      ],
      "stateMutability": "pure",
      "type": "function"
    }
  ],
  "bytecode": "0x6080604052348015600f57600080fd5b506102698061001f6000396000f3fe608060405234801561001057600080fd5b50600436106100365760003560e01c8063a9a234091461003b578063f465c77e14610051575b600080fd5b61004f6100493660046100aa565b50505050565b005b61006461005f36600461013c565b61007b565b604051610072929190610190565b60405180910390f35b6060600061008d6101208601866101e5565b505060408051600080825260208201909252969095509350505050565b600080600080606085870312156100c057600080fd5b8435600381106100cf57600080fd5b9350602085013567ffffffffffffffff8111156100eb57600080fd5b8501601f810187136100fc57600080fd5b803567ffffffffffffffff81111561011357600080fd5b87602082840101111561012557600080fd5b949760209190910196509394604001359392505050565b60008060006060848603121561015157600080fd5b833567ffffffffffffffff81111561016857600080fd5b8401610160818703121561017b57600080fd5b95602085013595506040909401359392505050565b604081526000835180604084015260005b818110156101be57602081870181015160608684010152016101a1565b506000606082850101526060601f19601f8301168401019150508260208301529392505050565b6000808335601e198436030181126101fc57600080fd5b83018035915067ffffffffffffffff82111561021757600080fd5b60200191503681900382131561022c57600080fd5b925092905056fea264697066735822122037df2bb82a78704182c2bd180df5b9aa824e872b4316159320729977a24e195e64736f6c634300081c0033",
  "linkReferences": {},
  "deployedLinkReferences": {}
}